S01600006275696C642F4C6162345F5370656C2E73313969
S3152000000037C10120EF00101B970200009382422087
S31520000010970000009380C00173901234374300008C
S31520000020130303887310033073002030EF00103D54
S315200000306F000000130101FF2326110023248100F5
S3152000004013040101B7170140938707403797666667
S315200000501307878823A0E700B71701409387074037
S315200000601307F0002398E700B7170140938707404E
S315200000701307000F239AE700B727014093870780CD
S3152000008003A70700B727014093870780137707FF49
S3152000009023A0E700B72701409387078003A707001F
S315200000A0B7270140938707801367270023A0E7001F
S315200000B0B7170140938707403727222213072722A5
S315200000C023A2E700B717014093870740130700F0E4
S315200000D0239AE700130000008320C1000324810037
S315200000E01301010167800000130101FE232E110078
S315200000F0232C810013040102B71701409387074080
S315200001001307000F2398E700232604FE6F00C00C78
S315200001108327C4FE93874700130710003317F70081
S31520000120B717014093870740131707011357070195
S31520000130239AE700232204FE6F000001832744FE52
S31520000140938717002322F4FE032744FE93073006E5
S31520000150E3D6E7FEB71701409387074083D787008A
S315200001602311F4FE232404FE6F008005035724FE8A
S31520000170832784FEB357F74093F71700639C070243
S31520000180B7170140938707401307000F239AE7000C
S315200001908327C4FE93F7F70F9397270013F7F70FDC
S315200001A0832784FE93F7F70FB307F70093F7F70F2C
S315200001B06F008004832784FE938717002324F4FE90
S315200001C0032784FE93073000E3D2E7FA8327C4FE91
S315200001D0938717002326F4FE0327C4FE93073000D7
S315200001E0E3D8E7F2B7170140938707401307000FBC
S315200001F0239AE7009307F00F138507008320C10198
S31520000200032481011301010267800000130101FE0E
S31520000210232E1100232C8100130401021305100044
S31520000220EF001071EFF01FE19307000F2326F4FE75
S315200002309307800C2324F4FE930710001307000075
S315200002409306F0131306F01D930500001305000016
S31520000250EF00B07AEFF05FE993070500A303F4FE01
S31520000260834774FE6388070013072000638CE7002A
S315200002706F0040028327C4FE9387F7FF2326F4FEF0
S315200002806F0040018327C4FE938717002326F4FEC0
S31520000290130000008327C4FE1385C7FE832784FE30
S315200002A09385C7FE93071000378700001307F7FFD3
S315200002B09306800213068002EF0030741305803EF9
S315200002C0EF0080006FF05FF7130101FE232E11006F
S315200002D0232C8100130401022326A4FEB7F700E095
S315200002E023A007000327C4FE930707009397370030
S315200002F0B387E7009397470013870700B7F700E017
S315200003001307F7FF23A8E700B7F700E01307F0026B
S3152000031023A0E700130000008320C10103248101EC
S315200003201301010267800000130101FF232611003B
S315200003302324810013040101B7F700E023A007005E
S31520000340130000008320C100032481001301010152
S3152000035067800000130101FE232E1100232C81004B
S3152000036013040102232604FE232404FEB7170240A9
S3152000037003A70700B71702401367170023A0E7005B
S31520000380B71702409387470083A60700B717024096
S31520000390938747003707FFF833F7E60023A0E700E7
S315200003A0B717024083A60700B71702403707F7FEA4
S315200003B01307F7FF33F7E60023A0E700B71702403D
S315200003C083A60700B71702403707FCFF1307F7FF7E
S315200003D033F7E60023A0E700B717024093874700CC
S315200003E083A60700B717024093874700370781FF88
S315200003F01307F7FF33F7E60023A0E700B7170240FD
S3152000040083A60700B7170240370700EC1307F7FF4C
S3152000041033F7E60023A0E700B7170240938787004B
S315200004203707FF0023A0E700B71702409387C702CC
S3152000043023A00700B717024083A60700B71702407C
S315200004403707010033E7E60023A0E700B71702408D
S3152000045003A70700B7070200B377F7002324F4FEAB
S315200004608327C4FE938717002326F4FE832784FE62
S31520000470639807000327C4FE9307401FE318F7FC81
S31520000480B717024003A70700B7070200B377F700A4
S3152000049063960700930710006F00C011B71702403C
S315200004A013874700B71702409387470003270700A3
S315200004B023A0E700B717024013874700B71702406B
S315200004C0938747000327070023A0E700B7170240BA
S315200004D09387C70203A70700B71702409387C7026F
S315200004E01367074023A0E700B7170240938747000A
S315200004F083A60700B7170240938747003707C1FF37
S315200005001307F7FF33F7E60023A0E700B7170240EB
S315200005109387470083A60700B717024093874700B3
S315200005203707010033E7E60023A0E700B7170240AC
S3152000053083A60700B71702403707000133E7E60016
S3152000054023A0E70013000000B717024003A7070007
S31520000550B7070002B377F700E38807FEB717024014
S315200005609387470003A70700B717024093874700E2
S315200005701377C7FF23A0E700B717024093874700EA
S3152000058003A70700B7170240938747001367270082
S3152000059023A0E70013000000B71702409387470007
S315200005A083A7070013F7C70093078000E316F7FE1B
S315200005B093070000138507008320C10103248101CE
S315200005C01301010267800000130101FD2326110299
S315200005D023245102232281022320A102232EB100AB
S315200005E0232CC100232AD1002328E1002326F10051
S315200005F02324010113040103B717004083D7070101
S315200006001397070113570701B71700401377E7FF22
S3152000061013170701135707012398E700B777002020
S3152000062003A7878783A7C7871305100093050000B4
S315200006303306A700130806003338E800B386B70050
S31520000640B307D80093860700130706009387060092
S31520000650B776002023ACE68623AEF686130000008C
S315200006608320C10283228102032441020325010241
S315200006708325C10103268101832641010327010128
S315200006808327C10003288100130101037300203052
S31520000690130101FE232E1100232C810013040102D5
S315200006A02326A4FEB777002003A7878783A7C787BB
S315200006B08327C4FE23A2E7008327C4FE03A747009F
S315200006C08327C4FE23A0E700B777002003A78787E8
S315200006D083A7C78793070700138507008320C101D7
S315200006E0032481011301010267800000130101FD2B
S315200006F0232611022324810213040103232EA4FCA2
S31520000700232CB4FCB777002003A7878783A7C78746
S315200007102324E4FE2326F4FE032784FE8327C4FE37
S31520000720130640069306000013050700938507006D
S31520000730EF30C01E13070500938705008326C4FDEE
S3152000074023A0E60023A2F600032784FE8327C4FE07
S31520000750130640069306000013050700938507003D
S31520000760EF30406213070500938705008327C4FDF9
S3152000077023A4E70093070000138507008320C10206
S31520000780032481021301010367800000130101FE87
S31520000790232E1100232C8100130401022326A4FEFC
S315200007A02324B4FE8327C4FE03A7070083A747009C
S315200007B0930540063385B70293050000B305B702BB
S315200007C03305B500930540063303B702B338B702A5
S315200007D013080300B30715019388070013070800C1
S315200007E093870800B775002023ACE58623AEF586EF
S315200007F08327C4FE83A787001386070093D7F74174
S3152000080093860700B777002003A5878783A5C78728
S315200008103307A600130807003338C800B387B6008D
S31520000820B306F80093870600B776002023ACE68649
S3152000083023AEF68693070000138507008320C101A7
S31520000840032481011301010267800000130101FFC7
S31520000850232611002324810013040101B7470140F8
S315200008609387078083D707009397070193D70701BC
S3152000087093F7070263800702B747014093870780F3
S3152000088083D747009397070193D7070193F7F70F6D
S315200008906F00800093070000138507008320C100A6
S315200008A0032481001301010167800000130101FE6A
S315200008B0232E1100232C8100130401029307050027
S315200008C0A307F4FEB7470140938707800347F4FE4A
S315200008D013170701135707012392E700130000009F
S315200008E0B74701409387078083D70700939707016F
S315200008F093D7070193F70708E38407FE1300000048
S31520000900130000008320C101032481011301010289
S3152000091067800000130101FD232611022324810292
S3152000092013040103232EA4FCB777002083A707888E
S31520000930639A0700B7770020377700201307C79EF2
S3152000094023A0E788B777002083A707882326F4FE0D
S31520000950B777002003A707888327C4FD3307F7004E
S31520000960B77700209387C71E63FEE700EF30103469
S31520000970130705009307C0002320F7009307F0FF15
S315200009806F000002B777002003A707888327C4FDDE
S315200009903307F700B777002023A0E7888327C4FE14
S315200009A0138507008320C10203248102130101035A
S315200009B067800000130101FE232E1100232C8100E5
S315200009C01304010213000000EFF0DF9893070500DF
S315200009D0E39C07FEB717024083A68701B71702409C
S315200009E03747000033E7E60023ACE700B71702409D
S315200009F003A78701B71702401367470023ACE70018
S31520000A00B717024003A78701B717024013671700DD
S31520000A1023ACE700B717024003A78701B7170240A8
S31520000A201367070223ACE700B717024003A7870125
S31520000A30B71702401367070423ACE700B717024035
S31520000A4083A6C700B71702403747000013070706DB
S31520000A5033E7E60023A6E700B717024083A6C700C0
S31520000A60B717024037C7FFFF1307F7F933F7E6003A
S31520000A7023A6E700B71701409387478003A70700FF
S31520000A80B7170140938747801367070B23A0E7001A
S31520000A90B71701409387478003A70700B717014080
S31520000AA0938747801367074023A0E700B747014095
S31520000AB0938707801307204E2394E700B74701400A
S31520000AC093870780372700001307C7002396E70080
S31520000AD0B717024003A7C701B717024013670701DC
S31520000AE023AEE700B717024003A70701B717024056
S31520000AF01367070123A8E700B717024003A70701DA
S31520000B00B71702401377F7FE23A8E700B71702406E
S31520000B1003A7C701B71702401367070223AEE700F2
S31520000B20B717024003A70701B7170240136707024A
S31520000B3023A8E700B717024003A70701B71702400B
S31520000B401377F7FD23A8E700B777002023A00788AF
S31520000B50B7770020938787872326F4FEB777002070
S31520000B609387C79E2324F4FE6F0040018327C4FE8B
S31520000B70138717002326E4FE238007000327C4FEDD
S31520000B80832784FEE364F7FEB777002083A70787D1
S31520000B9083A7470093060000130620009305000054
S31520000BA013850700EF304071B777002083A70787AA
S31520000BB083A78700930600001306200093050000F4
S31520000BC013850700EF30406FB777002083A707878C
S31520000BD083A7C70093060000130620009305000094
S31520000BE013850700EF30406D130000008320C101FC
S31520000BF0032481011301010267800000130101FF14
S31520000C002326110023248100130401011300000070
S31520000C108320C100032481001301010167800000A5
S31520000C20130101FE232E1100232C8100130401023F
S31520000C302326A4FE8327C4FE638A07008325C4FED9
S31520000C40B767002013850762EF300062EFF01FFBC5
S31520000C50130000008320C101032481011301010236
S31520000C6067800000130101FE232E1100232C810032
S31520000C70130401022326A4FE9307F0FF1385070021
S31520000C808320C10103248101130101026780000032
S31520000C90130101FE232E1100232C810013040102CF
S31520000CA02326A4FE2324B4FE2322C4FE9307F0FFAA
S31520000CB0138507008320C10103248101130101024A
S31520000CC067800000130101FE232E1100232C8100D2
S31520000CD0130401022326A4FE2324B4FE832784FEC4
S31520000CE03727000023A2E70093070000138507009B
S31520000CF08320C101032481011301010267800000C2
S31520000D00130101FE232E1100232C8100130401025E
S31520000D102326A4FE2324B4FE2322C4FE9307000028
S31520000D20138507008320C1010324810113010102D9
S31520000D3067800000130101FE232E1100232C810061
S31520000D40130401022326A4FE93070000138507003F
S31520000D508320C10103248101130101026780000061
S31520000D60130101FD2326110223248102130401030A
S31520000D70232EA4FC232CB4FC232AC4FC832744FD65
S31520000D802326F4FE6F00C001832784FD13871700F6
S31520000D90232CE4FC83C7070013850700EFF01FB15F
S31520000DA0832744FD1387F7FF232AE4FCE39E07FCF1
S31520000DB08327C4FE138507008320C10203248102F2
S31520000DC01301010367800000130101FD2326110290
S31520000DD02324810213040103232EA4FC232CB4FC18
S31520000DE0232AC4FC232604FEEFF05FA69307050002
S31520000DF0A305F4FE8347B4FE63820702832784FD9E
S31520000E0013871700232CE4FC0347B4FE2380E70056
S31520000E108327C4FE938717002326F4FE032744FD69
S31520000E208327C4FEE312F7FC8327C4FE138507003D
S31520000E308320C1020324810213010103678000007D
S31520000E40130101FF2326110023248100130401012D
S31520000E5093070000138507008320C1000324810027
S31520000E601301010167800000130101FE232E1100EA
S31520000E70232C8100130401022326A4FE2324B4FE7E
S31520000E8093070000138507008320C10103248101F5
S31520000E901301010267800000317106DF16DDF3229F
S31520000EA0300016DB1AD91ED722D52AD32ED132CF1F
S31520000EB036CD3ACB3EC942C746C572C376C1FADEA5
S31520000EC0FEDC82EE86EC8AEA8EE892E696E49AE2E8
S31520000ED09EE02AFE2EFC32FA36F83AF63EF442F22C
S31520000EE046F072EE76EC7AEA7EE88001C687232405
S31520000EF0F4F4832784F4DC432326F4F4832784F450
S31520000F009C43130770046382E71A13077004634037
S31520000F10F71C13076004638EE71613076004634803
S31520000F20F71A130720036380E7161307200363408D
S31520000F30F71A15476386E7121547634AF7181147CC
S31520000F40638DE70E11476344F7180D47638CE70A54
S31520000F500D47634EF71609476385E7060947634839
S31520000F60F71689C70547638FE70095A28327C4F440
S31520000F709C433E85EF202010AA873E878327C4F412
S31520000F8098C3B1A28327C4F49C433E858327C4F427
S31520000F9091079C43BE858327C4F4A1079C433E86C4
S31520000FA08327C4F4B1079C43BE868327C4F4C107B4
S31520000FB09C433E878327C4F4D1079C43EF10904D72
S31520000FC039A28327C4F49C433E858327C4F4910722
S31520000FD09C43BE858327C4F4A1079C433E86832772
S31520000FE0C4F4B1079C43BE868327C4F4C1079C433F
S31520000FF01397070141838327C4F4D1079C43EF103D
S31520001000D037F1A08327C4F49C433E858327C4F4BC
S3152000101091079C43BE858327C4F4A1079C433E8643
S315200010208327C4F4B1079C43BE868327C4F4C10733
S315200010309C433E87EF10101D59A88327C4F49C4378
S315200010403E878327C4F491079C43BE868327C4F436
S31520001050A1079C433E86B6853A85EF10F07485A895
S315200010608327C4F49C433E878327C4F491079C437B
S31520001070BE868327C4F4A1079C433E86B6853A855F
S31520001080EF103013A9A08327C4F49C433E851D2569
S315200010903DA88327C4F49C433E85EF009074AA871D
S315200010A03E878327C4F498C31DA08327C4F49C439A
S315200010B03E878327C4F491079C43BE853A85EF007B
S315200010C0906CAA873E878327C4F498C30100F32235
S315200010D010349102739012340100FA50DA52739050
S315200010E03200EA524A53BA532A541A558A557A4636
S315200010F0EA465A47CA473A48AA481A4E8A4E765F5F
S31520001100E65F7660E6605661C6613662A662166361
S3152000111086637275E2755276C2763277A277127836
S315200011208278726EE26E526FC26F29617300203030
S31520001130797106D622D40018232EA4FC930784FEA8
S315200011402320F4FEBE882320F4FE232404FE8327D6
S31520001150C4FD2322F4FE930744FE2326F4FEB7C7DC
S315200011600120D10737170020130787E998C373009A
S315200011700000832744FE3E85B2502254456182807A
S315200011801D7186CEA2CC8010232EA4FA232CB4FA6D
S31520001190232AC4FA2328D4FA2326E4FA2324F4FAA9
S315200011A0930784FE2326F4FCBE882326F4FC854779
S315200011B02324F4FE8327C4FB2328F4FC832784FB03
S315200011C0232AF4FC832744FB232CF4FC832704FBEB
S315200011D0232EF4FC8327C4FA2320F4FE832784FAE3
S315200011E02322F4FE930704FD2326F4FE7300000059
S315200011F00100F6406644256182801D7186CEA2CC10
S315200012008010232EA4FA232CB4FA232AC4FA2328E6
S31520001210D4FA2326E4FA2324F4FA930784FE232619
S31520001220F4FCBE882326F4FC89472324F4FE832776
S31520001230C4FB2328F4FC832784FB232AF4FC83277E
S3152000124044FB232CF4FC832704FB232EF4FC832766
S31520001250C4FA2320F4FE832784FA2322F4FE93077C
S3152000126004FD2326F4FE730000000100F6406644C8
S31520001270256182801D7186CEA2CC8010232EA4FAF1
S31520001280232CB4FA232AC4FA2328D4FA2326E4FAF0
S31520001290930784FE2326F4FCBE882326F4FC8D4780
S315200012A02324F4FE8327C4FB2328F4FC832784FB12
S315200012B0232AF4FC832744FB232CF4FC832704FBFA
S315200012C0232EF4FC8327C4FA2320F4FE930704FD7F
S315200012D02326F4FE730000000100F64066442561D3
S315200012E082805D7186C6A2C48008232EA4FA232C90
S315200012F0B4FA232AC4FA930784FE2326F4FCBE8874
S315200013002326F4FC91472324F4FE8327C4FB2328B9
S31520001310F4FC832784FB232AF4FC832744FB232C19
S31520001320F4FC930704FD2326F4FE7300000001005D
S31520001330B6402644616182805D7186C6A2C480085B
S31520001340232EA4FA232CB4FA232AC4FA930784FE64
S315200013502326F4FCBE882326F4FC95472324F4FE9A
S315200013608327C4FB2328F4FC832784FB232AF4FC4D
S31520001370832744FB232CF4FC930704FD2326F4FE49
S31520001380730000000100B6402644616182807971B5
S3152000139006D622D40018232EA4FC930784FE2320ED
S315200013A0F4FEBE882320F4FE930760042324F4FE73
S315200013B08327C4FD2322F4FE930744FE2326F4FE4E
S315200013C073000000832744FE3E85B25022544561B7
S315200013D08280397106DE22DC80002326A4FC2324A9
S315200013E0B4FC930784FE232EF4FCBE88232EF4FC43
S315200013F0930770042324F4FE8327C4FC2320F4FEE1
S31520001400832784FC2322F4FE930704FE2326F4FE7E
S3152000141073000000832704FE3E85F250625421614A
S315200014208280797106D622D40018232EA4FC930735
S3152000143084FE2320F4FEBE882320F4FE9307200397
S315200014402324F4FE8327C4FD2322F4FE930744FEBF
S315200014502326F4FE730000000100B2502254456199
S315200014608280011106CE22CC0010232604FE2324DE
S3152000147004FEB71702409843B717024013671700B8
S3152000148098C3B717024091079443B71702409107B4
S315200014903707FFF8758F98C3B71702409443B717DD
S315200014A002403707F7FE7D17758F98C3B71702409E
S315200014B09443B71702403707FCFF7D17758F98C3F3
S315200014C0B717024091079443B71702409107370791
S315200014D081FF7D17758F98C3B71702409443B717BE
S315200014E00240370700EC7D17758F98C3B717024067
S315200014F0A1073707FF0098C3B71702409387C70293
S3152000150023A00700B71702409443B717024041674C
S31520001510558F98C3B71702409843B7070200F98F33
S315200015202324F4FE8327C4FE85072326F4FE83277F
S3152000153084FE99E70327C4FE9307401FE31CF7FCAC
S31520001540B71702409843B7070200F98F99E38547FA
S31520001550E1A0B717024013874700B717024091074B
S31520001560184398C3B717024013874700B71702409E
S315200015709107184398C3B71702409387C702984329
S31520001580B71702409387C7021367074098C3B71758
S31520001590024091079443B717024091073707C1FFCE
S315200015A07D17758F98C3B717024091079443B717D5
S315200015B0024091074167558F98C3B717024094435D
S315200015C0B717024037070001558F98C30100B71798
S315200015D002409843B7070002F98FF5DBB7170240A0
S315200015E091079843B71702409107719B98C3B71785
S315200015F0024091079843B7170240910713672700C7
S3152000160098C30100B717024091079C4313F7C70000
S31520001610A147E319F7FE81473E85F2406244056102
S315200016208280411106C622C40008B717004093875E
S31520001630074023900700B717004093874740239021
S315200016400700B71700409387C74023900700B717B6
S3152000165000409387074123900700B71700409387E0
S3152000166087421307F0082390E700B71700409387B7
S31520001670C7421307703E2390E700B71700409387B1
S31520001680074005472390E7000100B71700409387DE
S31520001690074183D70700C207C183858BFDD7B717BC
S315200016A0004093870740239007000100B240224460
S315200016B041018280011106CE22CC00102326A4FEF1
S315200016C011A085378327C4FE1387F7FF2326E4FE60
S315200016D0EDFB01000100F240624405618280411168
S315200016E006C622C40008B7170040938707402390F8
S315200016F00700B71700409387074123900700B717C5
S3152000170000409387874223900700B71700409387AE
S31520001710C7421307F0082390E700B71700409387C6
S31520001720074005472390E7000100B717004093873D
S31520001730074183D70700C207C183858BFDD7B7171B
S31520001740004093870740239007000100B2402244BF
S3152000175041018280011106CE22CC00102326A4FE50
S3152000176011A0B53F8327C4FE1387F7FF2326E4FE87
S31520001770EDFB01000100F2406244056182804111C7
S3152000178006C622C40008B717004093870740239057
S315200017900700B71700409387074123900700B71724
S315200017A000409387874223900700B717004093870E
S315200017B0C74279472390E700B71700409387074031
S315200017C005472390E7000100B7170040938707419C
S315200017D083D70700C207C183858BFDD7B717004083
S315200017E093870740239007000100B240224441011D
S315200017F08280411106C622C4000851370100B2403A
S31520001800224441018280411106C622C40008B7172E
S315200018100240E1079443B7170240E1070567350701
S31520001820558F98C3B7170240B1079443B7170240A4
S31520001830B10705673507558F98C3B7170240B1071B
S315200018409443B7170240B1077D774917758F98C320
S31520001850B7170140938747C09843B717014093872E
S3152000186047C04207418398C3B7170140938747C0B3
S315200018709443B7170140938747C037073333558FB3
S3152000188098C3B7170140938707809443B717014041
S3152000189093870780370710007D17758F98C3B71772
S315200018A00140938707809443B717014093870780A9
S315200018B03707B0B4558F98C3B71701409387C780B1
S315200018C083D70700139707014183B71701409387F2
S315200018D0C78013670704420741832390E700B717A1
S315200018E001409387C7C083D7070093960701C1821B
S315200018F0B71701409387C7C06177558F4207418349
S315200019002390E700B71701409387C7C083D7070006
S3152000191093960701C182B71701409387C7C0056711
S31520001920558F420741832390E700B7370140239024
S315200019300700B737014023920700B7370140130746
S31520001940C0302390E700B7370140239E0700B73702
S3152000195001401D472398E700B737014083D707008A
S31520001960139707014183B7370140136707044207DE
S3152000197041832390E700B7770020938747882390F9
S315200019800700B77700209387478823910700B7770A
S3152000199000209387478823920700B77700209387F4
S315200019A0478823830700B7770020938747882394A7
S315200019B00700B77700209387478823950700B777D6
S315200019C0002093874788239607000100B2402244CF
S315200019D041018280797106D622D40018232EA4FCD8
S315200019E0AE87A30DF4FC231704FE8327C4FD83D7FB
S315200019F087002317F4FE8357E4FE898B91E3F5B71E
S31520001A0001008347B4FD1397070141838327C4FD53
S31520001A102396E7008327C4FD83D787002317F4FE88
S31520001A208357E4FE858B91E3F5B701008327C4FD38
S31520001A3083D7C700C207C18393F7F70F3E85B250FD
S31520001A40225445618280797106D622D40018AA874D
S31520001A50A30FF4FCA30704FEA30704FE65A08307D7
S31520001A60F4FD63D40702B7170140B10783D70700F7
S31520001A70139707014183B7170140B1071367470042
S31520001A80420741832390E7000DA0B7170140B10715
S31520001A9083D70700139707014183B7170140B10782
S31520001AA06D9B420741832390E7008347F4FD860719
S31520001AB0A30FF4FCB7170140B10783D7070013978C
S31520001AC007014183B7170140B1073D9B4207418378
S31520001AD02390E7000545BD39B7170140B10783D7E5
S31520001AE00700139707014183B7170140B107136712
S31520001AF00701420741832390E7008347F4FE8507C9
S31520001B00A307F4FE0347F4FE9D47E3FAE7F401003A
S31520001B100100B250225445618280797106D622D4C2
S31520001B200018AA87A30FF4FCA30704FE231604FEBD
S31520001B30231504FEB7170140B10783D70700139773
S31520001B4007014183B7170140B1073D9B42074183F7
S31520001B502390E700B7170140B10783D707001397F3
S31520001B6007014183B7170140B1076D9B42074183A7
S31520001B702390E700B7170140B10783D707001397D3
S31520001B8007014183B7170140B1075D9B4207418397
S31520001B902390E7008347F4FD3E85753519455D3E64
S31520001BA0B7170140B10783D7070013970701418371
S31520001BB0B7170140B1073D9B420741832390E700B9
S31520001BC00545493EB7170140B10783D7070013974C
S31520001BD007014183B7170140B10713670701420781
S31520001BE041832390E7000545B536B7170140B10775
S31520001BF083D70700139707014183B7170140B10721
S31520001C003D9B420741832390E700A30704FE59A08A
S31520001C108357C4FE86072316F4FEB7170140B10783
S31520001C2083D70700139707014183B7170140B107F0
S31520001C303D9B420741832390E7000545213EB71788
S31520001C400140B10783D70700139707014183B717D0
S31520001C500140B10713670701420741832390E7003C
S31520001C60B7170140A10783D707002315F4FEB7173E
S31520001C700140A10783D70700C207C183898B91C77B
S31520001C808357C4FE85072316F4FE8347F4FE850793
S31520001C90A307F4FE0347F4FEBD47E3FBE7F68357AD
S31520001CA0C4FE91832316F4FEB7170140B10783D7EC
S31520001CB00700139707014183B7170140B107136740
S31520001CC08700420741832390E7008357C4FE3E8561
S31520001CD0B250225445618280397106DE22DC26DA32
S31520001CE08000AA87A307F4FC231504FE231704FE0D
S31520001CF02DA08354E4FE8347F4FC3E85393DAA8714
S31520001D00BE869307C4FD13971400BA972390D70075
S31520001D108357E4FE85072317F4FE0357E4FE914715
S31520001D20E3F9E7FC231704FE61A88357E4FE850741
S31520001D302316F4FEA5A80357E4FE9307C4FD060761
S31520001D40BA9703D707008356C4FE9307C4FD8606B9
S31520001D50B69783D7070063F6E7040357E4FE930795
S31520001D60C4FD0607BA9783D707002314F4FE03574A
S31520001D70C4FE8356E4FE9307C4FD0607BA9703D72D
S31520001D8007009307C4FD8606B6972390E7000357FE
S31520001D90C4FE9307C4FD0607BA97035784FE239013
S31520001DA0E7008357C4FE85072316F4FE0357C4FEB7
S31520001DB09147E3F2E7F88357E4FE85072317F4FEFD
S31520001DC00357E4FE8D47E3F2E7F6231504FE854725
S31520001DD02317F4FE1DA00357E4FE9307C4FD060750
S31520001DE0BA9783D707000357A4FEBA972315F4FEA4
S31520001DF08357E4FE85072317F4FE0357E4FE8D4739
S31520001E00E3FBE7FC0357A4FEB7B7AAAA9387B7AAB2
S31520001E10B337F70285832314F4FE835784FE3E8569
S31520001E20F2506254D25421618280797106D622D42E
S31520001E300018232EA4FC232CB4FC1305000D693DA9
S31520001E40AA872317F4FE130500097935AA872316D6
S31520001E50F4FE8327C4FD0357E4FE2390E70083277F
S31520001E6084FD0357C4FE2390E70085473E85B25084
S31520001E70225445618280797106D622D40018232EF9
S31520001E80A4FC232CB4FC1307A4FE9307C4FEBA8536
S31520001E903E85613FAA87A307F4FE8347F4FE99E3B4
S31520001EA08147E9A8130764FE930784FEBA853E8519
S31520001EB0AD3FAA87A307F4FE8347F4FE99E3814743
S31520001EC075A8035784FE8357C4FE63EAE700835749
S31520001ED084FE938717030357C4FE63D0E702035794
S31520001EE0C4FE835784FE63EAE7088357C4FE9387BC
S31520001EF01703035784FE63C2E708035764FE83571C
S31520001F00A4FE63EAE700835764FE9387170303570B
S31520001F10A4FE63D0E7020357A4FE835764FE63EE54
S31520001F20E7048357A4FE93871703035764FE63C60B
S31520001F30E7048357C4FE3E87835784FEBA9713D798
S31520001F40F701BA9785871397070141838327C4FD35
S31520001F502390E7008357A4FE3E87835764FEBA97F3
S31520001F6013D7F701BA9785871397070141838327EC
S31520001F7084FD2390E700854711A081473E85B25016
S31520001F80225445618280011106CE22CC00102326E0
S31520001F90A4FE2324B4FEB77700209387478983C7FE
S31520001FA08700E207E18763D80702B7770020938787
S31520001FB0478983D747003E878327C4FE98C3B777D0
S31520001FC000209387478983D767003E87832784FE2F
S31520001FD098C3854711A081473E85F240624405613A
S31520001FE08280797106D622D40018232EA4FCB71736
S31520001FF00140A10783D70700C207C183858B639F52
S3152000200007108327C4FD99CBB77700209385A7892E
S31520002010B777002013858789B93D75A0B77700204B
S315200020209385A789B777002013858789A935AA873D
S31520002030D9CBB77700209387478983D747003E8738
S31520002040BA878A07BA979A0713D72700B7070820AF
S3152000205093871720B337F7029D8313070014B3071E
S31520002060F7402326F4FEB77700209387478983D746
S3152000207067003E87BA879207998F960713D727005E
S31520002080B707082093871720B337F7029D831307D6
S31520002090001EB307F7402324F4FE832784FE1397FC
S315200020A007014183B7770020938747892392E7006A
S315200020B08327C4FE139707014183B77700209387B0
S315200020C047892393E700B77700209387478983C7FB
S315200020D08700E207E18763C8070AB777002093875E
S315200020E04789130700FC2384E700B77700209387EE
S315200020F0478903D74700B7770020938747892390DE
S31520002100E700B77700209387478903D76700B7771B
S315200021100020938747892391E700B5A0B777002051
S315200021209387478983C78700E207E18763D307023E
S31520002130B77700209387478983C7870093F7F707E8
S3152000214013F7F70FB7770020938747892384E70093
S315200021501DA8B77700209387478923900700B77774
S3152000216000209387478923910700B777002093871C
S3152000217047897D572392E700B777002093874789C1
S315200021807D572393E700B77700209387478983C736
S31520002190870093F707083E85B25022544561828016
S315200021A0011106CE22CC0010AA87A307F4FEB7178A
S315200021B001409387C7C083D7070093960701C18242
S315200021C0B71701409387C7C021677D17758F4207D0
S315200021D041832390E700B71701409387C7C083D771
S315200021E0070093960701C182B71701409387C7C09E
S315200021F071777D17758F420741832390E7008347C8
S31520002200F4FEBE8537350140EFF0CFFCB71701400D
S315200022109387C7C083D7070093960701C182B71754
S3152000222001409387C7C06177558F4207418323902A
S31520002230E7000100F240624405618280011106CE6A
S3152000224022CC0010AA87A307F4FEB7170140938774
S31520002250C7C083D7070093960701C182B7170140ED
S315200022609387C7C021677D17758F420741832390C7
S31520002270E700B71701409387C7C083D70700939617
S315200022800701C182B71701409387C7C01167558FD1
S31520002290420741832390E7008347F4FEBE85373506
S315200022A00140EFF02FF3B71701409387C7C083D7BC
S315200022B0070093960701C182B71701409387C7C0CD
S315200022C06177558F420741832390E7000100F24052
S315200022D0624405618280011106CE22CC0010AA87B5
S315200022E02317F4FEB71701409387C7C083D707008B
S315200022F093960701C182B71701409387C7C021670C
S315200023007D17758F420741832390E700B717014059
S315200023109387C7C083D7070093960701C182B71753
S3152000232001409387C7C01167558F42074183239089
S31520002330E700B777002083A7078A898B9DC7835735
S31520002340E4FEA183C207C18393F7F70FBE85373515
S315200023500140EFF02FE88357E4FE93F7F70FBE8591
S3152000236037350140EFF00FE78DA0B777002083A720
S31520002370078A858BB9CB8357E4FEA183C207C18325
S3152000238093F7F70FE19B93F7F70FBE85373501409B
S31520002390EFF04FE48357E4FE8D83C207C18393F7A2
S315200023A0F70FF19B93F7F70FBE8537350140EFF016
S315200023B06FE28357E4FE93F7F70F8E0793F7F70F35
S315200023C0BE8537350140EFF0EFE0B7170140938720
S315200023D0C7C083D7070093960701C182B71701406C
S315200023E09387C7C06177558F420741832390E700C3
S315200023F00100F240624405618280011106CE22CCA2
S315200024000010AA8736872317F4FEAE872316F4FE1C
S31520002410B2872315F4FEBA872314F4FEB77700207B
S315200024209387478883D7A70093F7F70F3E858D3B81
S315200024308357E4FEA183C207C18393F7F70F3E8536
S31520002440F53B8357E4FE93F7F70F3E85C53B83574D
S31520002450A4FEA183C207C18393F7F70F3E85F93BFC
S315200024608357A4FE93F7F70F3E85C93B01450D3BE5
S31520002470B77700209387478883D7C70093F7F70F4E
S315200024803E85393B8357C4FEA183C207C18393F798
S31520002490F70F3E8565338357C4FE93F7F70F3E85C6
S315200024A0713B835784FEA183C207C18393F7F70F3D
S315200024B03E856933835784FE93F7F70F3E85BD3BF0
S315200024C00145F939B77700209387478883D7870056
S315200024D093F7F70F3E85E9310100F240624405612A
S315200024E08280797106D622D40018AA87231FF4FC8D
S315200024F0B77700209387478883D70700FD17139760
S3152000250007014183B77700209387478883D7270021
S31520002510FD17C207C183BE863A8681450145F13D36
S31520002520B71701409387C7C083D707009396070143
S31520002530C182B71701409387C7C021677D17758F62
S31520002540420741832390E700B71701409387C7C00E
S3152000255083D7070093960701C182B7170140938757
S31520002560C7C01167558F420741832390E700232672
S3152000257004FE2DA8232404FE11A88357E4FD3E85DE
S31520002580993B832784FE85072324F4FEB777002012
S315200025909387478883D707003E87832784FEE3EE09
S315200025A0E7FC8327C4FE85072326F4FEB7770020A1
S315200025B09387478883D727003E878327C4FEE3EB8C
S315200025C0E7FAB71701409387C7C083D707009396CA
S315200025D00701C182B71701409387C7C06177558F1E
S315200025E0420741832390E7000100B25022544561FF
S315200025F08280011106CE22CC0010AA872E872317AF
S31520002600F4FEBA872316F4FE8356C4FE0356E4FE70
S315200026100357C4FE8357E4FEBA853E85F93B010085
S31520002620F240624405618280011106CE22CC001060
S315200026302326A4FEB7770020938747881307A00296
S315200026402395E700B7770020938747881307B002C2
S315200026502396E700B7770020938747881307C002A1
S315200026602394E7008327C4FE13F7F70FB7770020DC
S31520002670938747882383E7000327C4FE8D47630F8C
S31520002680F70A0327C4FE8D4763C1E70E0327C4FE5E
S315200026908947630EF7060327C4FE894763C7E70CFD
S315200026A08327C4FE99C70327C4FE8547630AF7021A
S315200026B06DA8B777002093874788130700142390C7
S315200026C0E700B7770020938747881307001E2391DA
S315200026D0E70013056003E93413058004853679A0E5
S315200026E0B7770020938747881307001E2390E700BB
S315200026F0B777002093874788130700142391E700B4
S3152000270013056003713C130580020D3E85A0B77743
S31520002710002093874788130700142390E700B77794
S315200027200020938747881307001E2391E70013058F
S315200027306003BD341305800811360DA8B777002035
S31520002740938747881307001E2390E700B77700205A
S3152000275093874788130700142391E7001305600326
S3152000276081341305800ED93C11A001000100F240EE
S31520002770624405618280797106D622D40018AA8720
S31520002780231FF4FCAE87231EF4FCB287231DF4FC22
S31520002790B687231CF4FCBA87231BF4FC8357A4FDBD
S315200027A03E878357E4FDB307F740C207C1838507F9
S315200027B02315F4FE835784FD3E878357C4FDB30754
S315200027C0F740C207C18385072314F4FE835684FD90
S315200027D00356A4FD0357C4FD8357E4FDBA853E8501
S315200027E02939B71701409387C7C083D70700939627
S315200027F00701C182B71701409387C7C021677D179C
S31520002800758F420741832390E700B71701409387CE
S31520002810C7C083D7070093960701C182B717014027
S315200028209387C7C01167558F420741832390E700DE
S31520002830231704FE05A8231604FE11A8835764FD5A
S315200028403E85513C8357C4FE85072316F4FE035765
S31520002850C4FE8357A4FEE363F7FE8357E4FE850791
S315200028602317F4FE0357E4FE835784FEE365F7FC43
S31520002870B71701409387C7C083D7070093960701F0
S31520002880C182B71701409387C7C06177558F42072A
S3152000289041832390E7000100B25022544561828093
S315200028A0397106DE22DC8000232EA4FC232CB4FC06
S315200028B0232AC4FC2328D4FC2326E4FC2324F4FC6A
S315200028C0832784FCA5C3032744FD8327C4FDB307C0
S315200028D0F7402326F4FE2DA8032704FD832784FD35
S315200028E0BA970326C4FCBE850325C4FED920032738
S315200028F004FD832784FDB307F7400326C4FCBE8569
S315200029000325C4FE7D208327C4FE85072326F4FEE7
S31520002910032744FD8327C4FDBA970327C4FEE3DDBE
S31520002920E7FA59A00327C4FD832744FDB306F70021
S31520002930032784FD832704FDBA970326C4FCBE859E
S3152000294036858528032744FD8327C4FDB306F74033
S31520002950032784FD832704FDBA970326C4FCBE857E
S31520002960368581280327C4FD832744FDB306F70057
S31520002970032704FD832784FDB307F7400326C4FC01
S31520002980BE8536853D20032744FD8327C4FDB30637
S31520002990F740032704FD832784FDB307F74003266A
S315200029A0C4FCBE85368531200100F2506254216177
S315200029B08280011106CE22CC00102326A4FE2324D9
S315200029C0B4FE2322C4FE8327C4FEC207C183032785
S315200029D084FE420741838326C4FE13960601418264
S315200029E0832684FEC206C182BA853E853934832772
S315200029F044FEC207C1833E85F9380100F240624495
S31520002A00056182801D7186CEA2CC8010232EA4FA69
S31520002A10232CB4FA232AC4FA2328D4FA2326E4FA48
S31520002A20232404FE232204FE032744FB8327C4FB1E
S31520002A30B307F7402320F4FE032704FB832784FBF8
S31520002A40B307F740232EF4FC8327C4FB2326F4FC8C
S31520002A50832784FB2324F4FC832704FE6356F0009B
S31520002A608547232AF4FC05A0832704FE81E7232A31
S31520002A7004FC11A8FD57232AF4FC832704FEB30780
S31520002A80F0402320F4FE8327C4FD6356F0008547DB
S31520002A902328F4FC05A08327C4FD81E7232804FC12
S31520002AA011A8FD572328F4FC8327C4FDB307F04063
S31520002AB0232EF4FC032704FE8327C4FD63D7E700F7
S31520002AC0832704FE232CF4FC29A08327C4FD232C72
S31520002AD0F4FC231704FE69A00326C4FA832584FC8C
S31520002AE00325C4FCF935032784FE832704FEBA9701
S31520002AF02324F4FE032744FE8327C4FDBA9723220A
S31520002B00F4FE032784FE832784FD63D1E70203278F
S31520002B1084FE832784FDB307F7402324F4FE03278E
S31520002B20C4FC832744FDBA972326F4FC032744FEDE
S31520002B30832784FD63D1E702032744FE832784FD90
S31520002B40B307F7402322F4FE032784FC832704FDE2
S31520002B50BA972324F4FC8357E4FE85072317F4FE53
S31520002B600357E4FE832784FD8507E3D7E7F60100B4
S31520002B700100F640664425618280797106D622D40A
S31520002B8000182326A4FE2324B4FE2322C4FE2320D9
S31520002B90D4FE232CF4FCBA87231FF4FC832784FD60
S31520002BA0A9CB8327C4FE139507014181832784FE81
S31520002BB093950701C1818327C4FE1397070141839B
S31520002BC0832744FEC207C183BA9713960701418221
S31520002BD0832784FE139707014183832704FEC207B8
S31520002BE0C183BA97C207C1830357E4FDBE86613607
S31520002BF069A80327C4FE832744FEBA970357E4FD3A
S31520002C00832684FE3E86832584FE0325C4FEDD3B83
S31520002C10032784FE832704FEBA970357E4FDBE8666
S31520002C200326C4FE832584FE0325C4FEE13B032739
S31520002C30C4FE832744FE3305F7000327C4FE8327FB
S31520002C4044FE3306F700032784FE832704FEBA9743
S31520002C500357E4FDBE86832584FE6D33032784FE59
S31520002C60832704FEB305F7000327C4FE832744FE0B
S31520002C703306F700032784FE832704FEBA970357FB
S31520002C80E4FDBE860325C4FEB53B0100B2502254A6
S31520002C90456182805D7186C6A2C480082326A4FC75
S31520002CA02324B4FC2322C4FC2320D4FC232EE4FAC0
S31520002CB0232CF4FA232004FE832704FC232EF4FC81
S31520002CC0832704FC3387F702832744FCB386F70265
S31520002CD0832704FCB387F602B307F74053F707D0E0
S31520002CE0832744FCD3F607D0B767002087A707645D
S31520002CF0D3F6F610832744FCD3F707D0D3F7F61084
S31520002D00D377F7002726F4FE832704FC3387F702C0
S31520002D10832704FEB307F7028607D3F707D02724B5
S31520002D20F4FE832744FC3387F7028327C4FDB307C9
S31520002D30F7028607D3F707D02722F4FECDA08327F4
S31520002D4084FB0327C4FB832684FC0326C4FC83253B
S31520002D50C4FD032504FEA9368727C4FE530700F0C9
S31520002D60D397E7A091E3A1A0832704FE850723201C
S31520002D70F4FE832704FCB387F7028607D3F707D030
S31520002D80072784FED377F7002724F4FE0727C4FEFF
S31520002D90872784FE5377F700832704FCB387F7023F
S31520002DA0D3F707D0D377F7002726F4FE8DA88327FD
S31520002DB004FE85072320F4FE8327C4FDFD17232E5A
S31520002DC0F4FC832704FCB387F7028607D3F707D0E2
S31520002DD0072784FED377F7002724F4FE832744FCB5
S31520002DE0B387F7028607D3F707D0072744FED377A2
S31520002DF0F7082722F4FE0727C4FE872784FE537789
S31520002E00F700872744FE5377F708832704FCB38708
S31520002E10F702D3F707D0D377F7002726F4FE072744
S31520002E2084FE872744FED317F7A091FB832704FC53
S31520002E30B387F70253F707D0832704FED3F607D0CC
S31520002E40B767002087A74764D3F6F600832704FEDA
S31520002E5053F607D0B767002087A74764D377F600D5
S31520002E60D3F7F6105377F710832744FC3387F702FE
S31520002E708327C4FD9386F7FF8327C4FDFD17B387F9
S31520002E80F602B307F702D3F707D05377F700832765
S31520002E9044FC3387F702832704FC3307F702832792
S31520002EA004FCB307F702D3F707D0D377F708272C0C
S31520002EB0F4FCCDA0832784FB0327C4FB832684FC54
S31520002EC00326C4FC8325C4FD032504FED13A8727A7
S31520002ED084FD530700F0D317F7A091E3A1A0832721
S31520002EE0C4FDFD17232EF4FC832744FCB387F70289
S31520002EF08607D3F707D0072744FED377F70827227C
S31520002F00F4FE832744FCB387F70253F707D08727BD
S31520002F1084FD5377F700872744FED377F708272CBD
S31520002F20F4FC8DA88327C4FDFD17232EF4FC8327EC
S31520002F3004FE85072320F4FE832704FCB387F702CB
S31520002F408607D3F707D0072784FED377F7002724F1
S31520002F50F4FE832744FCB387F7028607D3F707D00E
S31520002F60072744FED377F7082722F4FE072784FD98
S31520002F70872784FE5377F700872744FE5377F70881
S31520002F80832744FCB387F702D3F707D0D377F7001C
S31520002F90272CF4FC8327C4FDE3DE07F001000100A3
S31520002FA0B640264461618280011106CE22CC0010F3
S31520002FB02326A4FE2324B4FE2322C4FE8327C4FE94
S31520002FC0138547FF8327C4FEB507032744FE8326C0
S31520002FD084FE3E86832584FE3534832784FE9385AE
S31520002FE047FF832784FEB507032744FEBE860326B4
S31520002FF0C4FE0325C4FE39348327C4FE1387170075
S31520003000832784FE8507032644FEBE853A855532EE
S315200030108327C4FE1387F7FF832784FE85070326AD
S3152000302044FEBE853A8571328327C4FE1387170076
S31520003030832784FEFD17032644FEBE853A85953AEE
S315200030408327C4FE1387F7FF832784FEFD170326F5
S3152000305044FEBE853A85B13A8147032744FE994608
S315200030601946832584FE0325C4FE2D310100F24036
S31520003070624405618280011106CE22CC00102326EF
S31520003080A4FE8327C4FE9D8B09476345F700634949
S31520003090F00021A011476385E70081476F005007A4
S315200030A00100B77700200327C4FE23A0E78A8327E1
S315200030B0C4FEC18BE1C3B7170240E1079843B71797
S315200030C00240E1071367070198C3B7170240B1070B
S315200030D09843B7170240B1071367070198C3B7177C
S315200030E00240B1079843B7170240B1073D9B98C3EA
S315200030F0B71701409443B71701403707F0FF758F84
S3152000310098C3B71701409443B717014037370300D8
S3152000311013074734558F98C3B7170140B1070D479A
S315200031202390E700B77700209387478923900700ED
S31520003130B77700209387478923910700B777002028
S315200031409387478923920700B7770020938747897B
S3152000315023930700B77700209387478923840700A6
S31520003160B77700209385A789B777002013858789AD
S31520003170EFE0BFCB0100EFE0CFAEAA87EDFFB71798
S315200031800240F1079843B7170240F1071367070279
S3152000319098C3B7170240C1079843B7170240C10723
S315200031A01367070298C3B7170240C1079843B7179A
S315200031B00240C1071377F7FD98C3B71700409387DE
S315200031C0074023900700EFE00FE4B71701409387ED
S315200031D0C7C083D7070093960701C182B71701405E
S315200031E09387C7C079777D17758F420741832390D0
S315200031F0E700B71701409387C7C083D70700939688
S315200032000701C182B71701409387C7C07D777D1715
S31520003210758F420741832390E7001305800CEFE06A
S315200032206FC9B71701409387C7C083D70700939606
S315200032300701C182B71701409387C7C00567558F1D
S31520003240420741832390E70013058007EFE08FC6EE
S315200032500545EFE0FFF48327C4FE898B63870724A7
S315200032601305000FEFE0DFF31305300CEFE01FFD31
S315200032701305000FEFE0DFF213056009EFE01FFCF6
S3152000328013056003EFE0DFF113058006EFE01FFB77
S315200032901305A003EFE0DFF01545EFE03FFA130535
S315200032A0000BEFE0FFEF13050008EFE03FF91305F1
S315200032B0600BEFE0FFEE0145EFE05FF80945EFE038
S315200032C0FFF71305500BEFE0BFED0945EFE01FF7C1
S315200032D00D45EFE0BFF60145EFE05FF61145EFE063
S315200032E0FFF51305100BEFE0BFEB13050008EFE029
S315200032F0FFF44145EFE09FF41305400BEFE05FEA52
S315200033000145EFE0BFF31305700BEFE07FE91305EE
S31520003310600CEFE0BFF21305500CEFE07FE81305D9
S315200033204002EFE0BFF11305400EEFE07FE7130503
S315200033301003EFE0BFF01305800EEFE07FE61305E4
S315200033400004EFE0BFEF1305A008EFE03FEF0145D3
S31520003350EFE0DFEE0145EFE07FEE13059002EFE0B0
S31520003360FFED6545EFE09FED1305500AEFE01FEDF9
S3152000337013053003EFE09FEC1305200CEFE05FE22E
S315200033801305700AEFE0DFE11305000EEFE05FE1C1
S315200033901305000FEFE09FEA2545EFE03FEA4D4594
S315200033A0EFE0DFE94945EFE07FE94945EFE01FE936
S315200033B01305B002EFE09FE81305C003EFE01FE816
S315200033C013054004EFE09FE71305B004EFE01FE785
S315200033D06D45EFE0BFE66145EFE05FE65D45EFE076
S315200033E0FFE57545EFE09FE513051002EFE01FE5C9
S315200033F01305100EEFE0DFDA1305000FEFE01FE4F0
S315200034002545EFE0BFE34D45EFE05FE33145EFE0D3
S31520003410FFE23545EFE09FE213057002EFE01FE281
S315200034201305B003EFE09FE113054004EFE01FE131
S315200034301305D004EFE09FE02D45EFE03FE05D452A
S31520003440EFE0DFDF5D45EFE07FDF7545EFE01FDF73
S3152000345013051002EFE09FDE13056003EFE05FD453
S315200034601305C00EEFE09FDD1305000FEFE05FD3DD
S315200034701305300CEFE09FDC1305000FEFE05FD261
S3152000348013059006EFE09FDB4D45EFE07FD14D45DC
S31520003490EFE01FD14545EFE0BFD013059002EFE0E6
S315200034A03FD00545EFF04F9811A18327C4FE858BA9
S315200034B06387071E1305700FEFE09FCE1305900A52
S315200034C0EFE0DFD713051005EFE05FD71305C00245
S315200034D0EFE0DFD613052008EFE05FD61305000CDA
S315200034E0EFE01FCC4545EFE07FD52545EFE01FD522
S315200034F01305100CEFE0DFCA13054004EFE01FD4DC
S315200035001305500CEFE0DFC90145EFE03FD3294515
S31520003510EFE0DFD213050008EFE05FD21305100BB2
S31520003520EFE01FC81305000BEFE05FD14545EFE044
S31520003530FFD01305400BEFE0BFC60945EFE01FD0D3
S315200035401305600BEFE0DFC50945EFE03FCF0945E6
S31520003550EFE0DFCE1305B003EFE05FCE1305700B6F
S31520003560EFE01FC41305600CEFE05FCD1305E00B01
S31520003570EFE01FC30145EFE07FCC1145EFE01FCC04
S315200035801305900EEFE0DFC10145EFE03FCB1305B9
S315200035906003EFE0FFC013058004EFE03FCA130588
S315200035A0A003EFE0FFBF1945EFE05FC91305000E4A
S315200035B0EFE01FBF0145EFE07FC81D45EFE01FC8C4
S315200035C04145EFE0BFC72545EFE05FC75D45EFE02A
S315200035D0FFC62D45EFE09FC613051004EFE01FC67A
S315200035E013059008EFE09FC51305B004EFE01FC553
S315200035F02945EFE0BFC43145EFE05FC43945EFE030
S31520003600FFC36145EFE09FC36D45EFE03FC33D45F6
S31520003610EFE0DFC21305100EEFE09FB80145EFE0A3
S31520003620FFC15D45EFE09FC16945EFE03FC1114510
S31520003630EFE0DFC03945EFE07FC01945EFE01FC05E
S315200036401305F002EFE09FBF13055004EFE01FBF04
S3152000365013053004EFE09FBE0945EFE03FBE294544
S31520003660EFE0DFBD2545EFE07FBD13052003EFE04A
S31520003670FFBC13056003EFE07FBC3D45EFE01FBCB8
S315200036804545EFE0FFB11305800CEFE0AF8213054F
S315200036909002EFE0FFB00545EFE01FF901AC83276C
S315200036A0C4FE918B638407201305100FEFE05FAFF4
S315200036B013056003EFE09FB81145EFE03FB80145E1
S315200036C0EFE0DFB71305C003EFE05FB73D45EFE05E
S315200036D0FFB61305F008EFE07FB61305200FEFE0E5
S315200036E03FAC6145EFE09FB51305300AEFE01FB50B
S315200036F04945EFE0BFB40945EFE05FB41305200B61
S31520003700EFE0DFB34945EFE07FB31305F00FEFE0BD
S31520003710FFB24145EFE09FB20145EFE03FB213050E
S31520003720800FEFE0FFA713051002EFE03FB1114530
S31520003730EFE0DFB01305900FEFE09FA60145EFE025
S31520003740FFAF2145EFE09FAF13056003EFE05FA5D4
S315200037502145EFE0BFAE1305400BEFE07FA4014506
S31520003760EFE0DFAD1305100CEFE09FA31305700407
S31520003770EFE0DFAC1305500CEFE09FA20145EFE030
S31520003780FFAB1305F00AEFE07FAB13050008EFE06F
S31520003790FFAA0145EFE09FAA1305000EEFE05FA008
S315200037A03D45EFE0BFA97D45EFE05FA97145EFE01C
S315200037B0FFA83145EFE09FA83D45EFE03FA8214512
S315200037C0EFE0DFA713058004EFE05FA7130580096C
S315200037D0EFE0DFA613057003EFE05FA62945EFE0D3
S315200037E0FFA54D45EFE09FA51145EFE03FA54545D7
S315200037F0EFE0DFA43545EFE07FA40145EFE01FA40D
S315200038001305100EEFE0DF993D45EFE03FA31305CA
S315200038102003EFE0BFA21305E002EFE03FA22D4513
S31520003820EFE0DFA13545EFE07FA11545EFE01FA1D1
S3152000383013057004EFE09FA013055007EFE01FA0CB
S3152000384013057003EFE09F9F1945EFE03F9F414529
S31520003850EFE0DF9E0D45EFE07F9E13054002EFE08F
S31520003860FF9D13050002EFE07F9D0145EFE01F9DC0
S315200038701305A003EFE0DF9213056006EFE01F9C1F
S315200038804545EFE0FF9113056003EFE07F911305B7
S315200038908002EFE0BF9A13058007EFD0BFE1130542
S315200038A09002EFE0FF8F0D45EFE01FD8B77700209D
S315200038B09387478883D70700FD171397070141830E
S315200038C0B77700209387478883D72700FD17C2073D
S315200038D0C183BE863A8681450145EFE01FB2C167A6
S315200038E0138507FEEFE0FFBFB71701409387C7C0D8
S315200038F083D7070093960701C182B71701409387A4
S31520003900C7C00967558F420741832390E700854743
S315200039103E85F2406244056182800000130806005D
S315200039209307050093880500639C060C63FAC5225D
S31520003930370701006368E636370700011303800165
S315200039406374E6001303000137670020B356660050
S31520003950130787643307D70003470700930600023F
S3152000396033076700630ED700B386E640B398D500C9
S315200039703357E5003318D600B317D500B3681701BF
S315200039801356080133D5C8029316080193D60601AB
S3152000399013D70701B3F8C802B385A6029398080186
S315200039A033671701637CB700B308E8001387080064
S315200039B063F4B80063F408391305F5FF3307B740FD
S315200039C0B355C7029397070193D707013377C702E9
S315200039D0B386B60213170701B3E7E70063FAD700E9
S315200039E0B307F80063F4D70063F607359385F5FF30
S315200039F0131505013365B5009305000067800000A7
S31520003A0063F8D500930500001305000067800000C9
S31520003A10B707010063E6F62AB707000113078001FE
S31520003A2063F4F60013070001B767002033D8E600D9
S31520003A3093878764B387070183C7070013080002AB
S31520003A40B387E700638607293308F840B358F600A2
S31520003A50B3960601B3E8D80033D3F50093DE080108
S31520003A60B356D303139E0801B3950501135E0E01C9
S31520003A70B357F500B3E7B70013D70701331606018E
S31520003A803373D303B305DE021313030133676700D1
S31520003A90637CB7003383E800130703006374B30025
S31520003AA0637C132D9386F6FF3307B7403353D70332
S31520003AB09397070193D707013377D703B3056E0290
S31520003AC013170701B3E7E70063FCB7003387F80055
S31520003AD0930707006374B700637417291303F3FF72
S31520003AE093960601B3E6660093180601139706011E
S31520003AF01357070193D808011356060113D306015D
S31520003B00330E1703B387B740B3081303B305C702B1
S31520003B1013570E01B38515013307B7003303C302CC
S31520003B2063761701370601003303C30013560701D6
S31520003B303306660063E0C702131E0E01135E0E01F4
S31520003B4013170701331505013307C701637EE51EE9
S31520003B50639CC71E1385F6FF93050000678000004F
S31520003B60630A061437070100637CE61893380610AB
S31520003B7093B8180093983800B3561601376700207B
S31520003B80130787643307D70003470700930600020D
S31520003B9033071701630AD714B387E6403318F600B4
S31520003BA033D3E50093580801335E13031316080137
S31520003BB0B395F500135606013357E5003367B70072
S31520003BC093560701B317F50033731303B305C603E2
S31520003BD013130301B3E6660063FCB6003305D80071
S31520003BE0930605006374B50063760517130EFEFF72
S31520003BF0B386B64033D516031317070113570701AB
S31520003C00B3F616033303A602939606013367D7004D
S31520003C10637C6700B306E8001387060063F466003A
S31520003C2063F606151305F5FF93150E01B3E5A500FA
S31520003C30330767403355170393D6070133771703A6
S31520003C403303C5021317070133E7E600637C6700D9
S31520003C50B306E8001387060063F4660063F6060DD4
S31520003C601305F5FF33076740B356170393970701EC
S31520003C7093D70701337717033386C6021317070135
S31520003C80B3E7E70063FAC700B307F80063F4C70099
S31520003C9063F807099386F6FF131505013365D500EA
S31520003CA067800000133306101333130013133300F9
S31520003CB06FF09FC993060000930800006FF01FEC79
S31520003CC013B7061013371700131737006FF0DFD519
S31520003CD03336C500B3B6B6001336160033E5C60034
S31520003CE093050000678000003387C540935806017E
S31520003CF01316060113560601930510006FF09FF365
S31520003D00370700016378E600935606019308000101
S31520003D106FF0DFE693568601930880016FF01FE669
S31520003D209386E6FF6FF05FF71305E5FF33870601FD
S31520003D306FF05FF39385E5FF6FF09FCB1305E5FFEB
S31520003D40338708016FF09FC713850600930500008F
S31520003D5067800000130EEEFFB30605016FF05FE9E2
S31520003D601303E3FFB30717016FF09FD71305E5FF92
S31520003D70338706016FF05FEB9386E6FF3307130167
S31520003D806FF09FD2130806009308050013830500E1
S31520003D9013870500639A060E63FEC526B707010042
S31520003DA06364F63EB7070001930680016374F6004C
S31520003DB093060001B76700203353D60093878764A4
S31520003DC0B387670083C7070013030002B387D700B2
S31520003DD0B306F340638C67003397D500B357F500DD
S31520003DE033E7E7003318D600B318D50093550801FA
S31520003DF03356B702131308011353030193D708014F
S31520003E003377B7023306660213170701B3E7E700D5
S31520003E1063F2C702B307F80033B5070133B7C7000B
S31520003E20133515003377A7003307E04033770701B2
S31520003E30B307F700B387C74033D7B70213950801F6
S31520003E4013550501B3F7B7023307670293970701A6
S31520003E503365F5006372E5023305A80033360501A4
S31520003E60B337E50013361600B3F7C700B307F040A3
S31520003E70B3F707013385A7003305E5403355D50051
S31520003E809305000067800000130E050063F4D5003B
S31520003E9067800000B707010063E6F630B707000128
S31520003EA01307800163F4F60013070001B7670020AB
S31520003EB033D8E60093878764B387070183C8070052
S31520003EC013080002B388E8006386082F33081841D8
S31520003ED0B3960601335316013363D300B3DE1501BF
S31520003EE0935F0301B3D7FE03131F0301B3950501A7
S31520003EF0135F0F01B3561501B3E6B60013D70601BB
S31520003F0033160601331E0501B3FEFE03B305FF0279
S31520003F10939E0E013367D701637CB7003305E30018
S31520003F20130705006374B500637A652E9387F7FF40
S31520003F303307B7403355F7039396060193D6060108
S31520003F403377F703B305AF021317070133E7E6000C
S31520003F50637CB700B306E3001387060063F4B6005C
S31520003F6063F8662A1305F5FF93970701B3E7A700C1
S31520003F703307B740931606019395070193D505019C
S31520003F8093D6060193D70701135F0601B38ED50298
S31520003F90B386D70213D50E01B385E503B385D500C5
S31520003FA03305B500B387E7036376D500B70601006E
S31520003FB0B387D70093560501939E0E0193DE0E011B
S31520003FC013150501B387F6003305D5016368F7009D
S31520003FD0B305F74063900502637EAE003306C54005
S31520003FE03335C50033056500B387A740B305F740D1
S31520003FF0130506003305AE40333EAE00B385C541FA
S31520004000B398150133550501B3D5050133E5A8004D
S315200040106780000063020618B70701006370F61C6C
S31520004020133706101337170013173700B356E60059
S31520004030B767002093878764B387D70083C70700B5
S3152000404013030002B387E700B306F340638E6716B7
S315200040503318D60033DEF50013530801B35E6E0223
S3152000406013160801B395D5003357F50013560601EC
S315200040703367B70093570701B318D500337E6E0216
S31520004080B385CE02131E0E01B3E7C70163F2B70252
S31520004090B307F80033BE070133B5B700133E1E0041
S315200040A03375C5013305A04033750501B307F50007
S315200040B0B387B740B3D56702131707011357070114
S315200040C0B3F76702B385C502939707013367F700F5
S315200040D06372B7023307E80033350701B337B700F9
S315200040E013351500B3F7A700B307F040B3F7070160
S315200040F03387E7003307B740B355670293D70801E4
S3152000410033776702B385C50213170701B3E7E700C4
S3152000411063F2B702B307F80033B5070133B7B70028
S31520004120133515003377A7003307E04033770701AF
S31520004130B307F700B387B74033D7670293980801D0
S3152000414093D8080133F56702B307C7021315050193
S3152000415033E5A8006372F5023305A800333605015E
S315200041603337F500133616003377C7003307E040A0
S31520004170337707013305A7003305F5403355D500BE
S3152000418093050000678000009336061093B616004C
S31520004190939636006FF01FC29306000013070000A7
S315200041A06FF01FE913B706101337170013173700E0
S315200041B06FF0DFCF63E4B6046372C50413050E0007
S315200041C093050300678000003387C540135306011B
S315200041D013160601135606016FF01FF2B7070001EA
S315200041E06378F60093560601130700016FF05FE42B
S315200041F093568601130780016FF09FE3330EC54067
S315200042003333C501B386D540338366406FF01FFB39
S315200042101305E5FF338766006FF01FD59387E7FF09
S31520004220330765006FF0DFD0130101FC2324C102A0
S315200042302326D1022328E102232AF102232C01037B
S31520004240232E1103138605008325850093068102FC
S31520004250232E11002326D100EF00806C8320C1017C
S315200042601301010467800000130101FC232AF102D7
S315200042709727000083A707602324C1022326D102A3
S315200042802322B1022328E102232C0103232E11032A
S3152000429083A58700930641021306050013850700B0
S315200042A0232E11002326D100EF0080678320C10131
S315200042B01301010467800000130101FD232E310143
S315200042C09729000083A9095B2324810223229102D6
S315200042D023202103232C410123261102232A5101C5
S315200042E01304050013890500130A060093840600AB
S315200042F0638A090083A709026396070013850900CC
S31520004300EF10003F930720006308FA0093372A0036
S31520004310638A071863C804189305040013850900E7
S31520004320EF10C00A83254403638C050093074404D9
S315200043306386F50013850900EF000018232A04027E
S315200043408357C400232C04002322040093F7070874
S31520004350638807008325040113850900EF00C01533
S315200043608357C40037F7FFFF1307C735B3F7E700B6
S315200043702316F40093072000630AFA109306C1005F
S31520004380130681009305040013850900EF10D00C55
S315200043908357C400B3E7A7002316F40063980406E6
S315200043A08324810013850400EF00002113090500F2
S315200043B0938A04006312050C832A810063969A0A65
S315200043C01305F0FF8357C4002324040093E7270036
S315200043D02316F400930774042320F4002328F40002
S315200043E093071000232AF4008320C10203248102AC
S315200043F083244102032901028329C101032A810161
S31520004400832A41011301010367800000E30C09F8A8
S3152000441083A709026396070013850900EF10402D34
S31520004420930710006318FA008357C400B3E74701C7
S315200044302316F4008317C4002320240123282401F3
S31520004440232A940013F78700630A070493F71700BB
S3152000445063820704B304904023240400232C940091
S31520004460130500006FF05FF813850A00EF00C014F3
S3152000447013090500E30605F48357C40093840A0054
S3152000448093E707082316F4006FF09FF81305000042
S315200044906FF05FF3232494006FF09FFC2324040025
S315200044A06FF01FFC1305F0FF6FF01FF417250000B7
S315200044B00325453C67800000638E050E83A7C5FF54
S315200044C0130101FE232C8100232E11001384C5FF26
S315200044D063D407003304F4002326A100EF0000353F
S315200044E09727000083A707500325C1006390070282
S315200044F0232204009727000023A6874E0324810148
S315200045008320C101130101026F0080326374F4021B
S31520004510832604003307D400639AE70003A7070025
S3152000452083A747003307D7002320E4002322F40083
S315200045306FF05FFC1387070083A74700638407009B
S31520004540E37AF4FE832607003306D7006318860233
S3152000455003260400B386C6002320D7003306D700DF
S31520004560E39EC7F803A6070083A74700B306D60035
S315200045702320D7002322F7006FF05FF86378C4006A
S315200045809307C0002320F5006FF05FF70326040091
S31520004590B306C400639AD70083A6070083A7470003
S315200045A0B386C6002320D4002322F40023228700CA
S315200045B06FF0DFF4678000009305050017250000E3
S315200045C00325452B6F00000A9305050017250000DB
S315200045D00325452A6FF05FEE9727000083A7474003
S315200045E0130101FF2324810023202101232611000A
S315200045F0232291001309050013840500639A0700FE
S3152000460093050000EF1010639727000023AAA73C0C
S315200046109305040013050900EF10D0619304F0FF01
S31520004620631295021304F0FF8320C10013050400D2
S315200046300324810083244100032901001301010181
S3152000464067800000130435001374C4FFE30E85FC55
S31520004650B305A44013050900EF10D05DE31695FCC1
S315200046606FF05FFC130101FE232A9100938435002D
S3152000467093F4C4FF232E1100232C8100232821012B
S315200046802326310123244101938484009307C0000B
S3152000469063F4F4009384070063C4040063F8B4024F
S315200046A09307C0002320F500130500008320C101D5
S315200046B00324810183244101032901018329C100A7
S315200046C0032A8100130101026780000013090500F7
S315200046D09729000093890931EF00401583A7090027
S315200046E01384070063120408938504001305090048
S315200046F0EFF09FEE9307F0FF130405006314F51205
S3152000470003A40900930704006394070E63020410B0
S31520004710032A04009305000013050900330A440107
S31520004720EF1050516316AA0E8327040013050900C3
S31520004730B384F44093850400EFF01FEA9307F0FF5B
S315200047406308F50C83270400B38797002320F40021
S3152000475083A7090003A747006312070A97270000CB
S3152000476023A207286F00400383260400B3869640C1
S3152000477063CA06061307B000637AD7042320940081
S31520004780330794006390870423A0E900832744001D
S315200047902320D7002322F70013050900EF00400944
S315200047A01305B40093074400137585FF3307F540BE
S315200047B0E30E07EE3304E400B387A7402320F4007A
S315200047C06FF0DFEE23A2E7006FF05FFC03274400C3
S315200047D06396870023A0E9006FF01FFC23A2E70061
S315200047E06FF09FFB93070400032444006FF09FEFB4
S315200047F01384070083A747006FF01FF11387070074
S3152000480083A74700E39C87FE232207006FF0DFF88B
S315200048109307C0002320F90013050900EF0040018B
S315200048206FF09FE8232095006FF01FF76780000048
S3152000483067800000832786009387F7FF2324F600EE
S3152000484063DC07000327860163C6E700938765FFBD
S31520004850639407006F10806983270600138505007F
S31520004860138717002320E6002380B7006780000007
S31520004870130101FE232C8100232A910023282101E4
S315200048802326310123244101232E110093090500FB
S31520004890138A050013040600B304D6001309F0FF9B
S315200048A063169400130500006F00C00183450400C1
S315200048B013060A0013850900EFF0DFF7130414002E
S315200048C0E31025FF8320C1010324810183244101B4
S315200048D0032901018329C100032A81001301010252
S315200048E06780000083278600130101FF23248100AF
S315200048F0232611001304060063800702EF0050658B
S31520004900232404008320C1002322040003248100E1
S315200049101301010167800000130500006FF09FFE60
S31520004920130101F52324810A2322910A232E31091A
S31520004930232C41092326110A2320210B232A51093E
S315200049402328610923267109232481092322910919
S31520004950930905009384050013040600138A0600B4
S31520004960630805008327050263940700EF0050586B
S3152000497083D7C40093F78700638C071083A70401AD
S315200049806388071093070002A30CF1029307000324
S31520004990232E4101232A0102230DF102130AF0FFDF
S315200049A0172B0000130B8BDA930B1000930AA00031
S315200049B0130C040083470C00B33CF0009387B7FD2B
S315200049C0B337F000B3FCFC0063980C10B3068C40A0
S315200049D063860602130604009385040013850900E6
S315200049E02326D100EFF0DFE863044529832741031E
S315200049F08326C100B387D700232AF10283470C0000
S31520004A006388072613041C002320010223260102A3
S31520004A102322410323240102A3010106232C01069C
S31520004A20834504001306500017250000130505D200
S31520004A30EF10806E83270102930614006312050A85
S31520004A4013F707016306070013070002A301E10617
S31520004A5013F78700630607001307B002A301E106D8
S31520004A60034604001307A0026308E6088327C10251
S31520004A70930600001306900003470400130707FD62
S31520004A806372E60E638806082326F1026F0080080B
S31520004A909385040013850900EF104056E30405EEC4
S31520004AA01305F0FF8320C10A0324810A8324410AC7
S31520004AB00329010A8329C109032A8109832A410975
S31520004AC0032B0109832BC108032C8108832C410861
S31520004AD01301010B67800000130C1C006FF09FED83
S31520004AE0330565413395AB003365F5002320A102DC
S31520004AF0138406006FF0DFF20327C1011306470077
S31520004B0003270700232EC100634407042326E1025E
S31520004B1013840600034704009307E002631EF7068A
S31520004B20034714009307A0026318F7048327C101E3
S31520004B30130424001387470083A70700232EE100D0
S31520004B4063D407009307F0FF2322F1026F00C0040D
S31520004B503307E04093E727002326E1022320F102D2
S31520004B606FF01FFBB387570313041400930610003E
S31520004B70B387E7006FF05FF01304140023220102CD
S31520004B80930700009306900003470400130707FDD0
S31520004B9063FAE608E39A0CFA83450400130630000C
S31520004BA017250000130505BBEF1000576304050207
S31520004BB097270000938707BA3305F540832701021C
S31520004BC0130700043317A700B3E7E7001304140004
S31520004BD02320F102834504001306600017250000F8
S31520004BE0130585B7230CB102EF100053630C05089B
S31520004BF093070000639A0704032701028327C10154
S31520004C0013770710630A070293874700232EF100C4
S31520004C108327410313041400B3872701232AF102B3
S31520004C206FF01FD9B387570313041400930C100099
S31520004C30B387E7006FF05FF59387770093F787FFD9
S31520004C40938787006FF09FFC1307C101970600002A
S31520004C50938646C213860400930501021385090034
S31520004C6097000000E700000013090500E31245FB4A
S31520004C7083D7C40093F70704E39407E2032541038F
S31520004C806FF05FE21307C10197060000938686BE88
S31520004C90138604009305010213850900EF00401DC9
S31520004CA06FF09FFC9306060013860500930505000A
S31520004CB017250000032505BC6FF09FC6130101FDD3
S31520004CC0232E310183A705019309070003A7850039
S31520004CD02324810223202103232861012326710115
S31520004CE02326110223229102232C4101232A51013A
S31520004CF0130B05001384050013090600938B060089
S31520004D0063D4E700930707002320F9000347340400
S31520004D1063060700938717002320F90083270400E2
S31520004D2093F70702638807008327090093872700E4
S31520004D302320F9008324040093F46400639E040076
S31520004D40130A9401930AF0FF8327C400032709005E
S31520004D50B387E74063C4F4088327040083463404FA
S31520004D6093F70702B336D0006392070C1306340478
S31520004D7093850B0013050B00E78009009307F0FFCE
S31520004D80630AF506832704001307400093040000F6
S31520004D9093F76700639EE700832709008324C400F6
S31520004DA0B384F44093C7F4FF93D7F741B3F4F400E8
S31520004DB083278400032704016356F700B387E7405F
S31520004DC0B384F400130900001304A401130AF0FFAE
S31520004DD063902409130500006F000002930610005B
S31520004DE013060A0093850B0013050B00E7800900C4
S31520004DF0631A55031305F0FF8320C10203248102A1
S31520004E0083244102032901028329C101032A810146
S31520004E10832A4101032B0101832BC10013010103C6
S31520004E2067800000938414006FF01FF23307D400CC
S31520004E3013060003A301C7040347540493871600EF
S31520004E40B307F40093862600A381E7046FF01FF2D0
S31520004E50930610001306040093850B0013050B0020
S31520004E60E7800900E30845F9130919006FF05FF69A
S31520004E70130101FC232C8102232A910223244103BE
S31520004E8023225103232E1102232821032326310313
S31520004E9083C785019384060093068007130A0500BD
S31520004EA013840500930A060063E2F60293062006A1
S31520004EB01386350463E0F60263860728930580058A
S31520004EC0972600009386C689638AB71C1309240493
S31520004ED06F0040049386D7F993F6F60F9305500199
S31520004EE0E3E6D5FE972500009385058A939626004E
S31520004EF0B386B60083A60600B386B6006780060092
S31520004F0083270700130924049386470083A70700F5
S31520004F102320D7002301F404930710006F004026B6
S31520004F20832704000325070093F607089305450009
S31520004F3063860602832705002320B70063D807006F
S31520004F401307D002B307F040A301E404972600001C
S31520004F50938606811307A0006F00800693F6070448
S31520004F60832705002320B700E38A06FC93970701D1
S31520004F7093D707416FF09FFC832504008326070003
S31520004F8013F5050883A7060093864600631A0500D5
S31520004F9093F50504638605009397070193D70701C8
S31520004FA02320D700834684011307F0066396E61470
S31520004FB0971600009386C67A13078000A30104047F
S31520004FC0832544002324B40063CE05000325040072
S31520004FD0B3E5B700130906001375B5FF2320A40017
S31520004FE06384050213090600B3F5E7021309F9FFE6
S31520004FF0B385B60083C505002300B9009385070055
S31520005000B3D7E702E3F2E5FE930780006314F702C5
S315200050108327040093F71700638E070003274400B5
S315200050208327040163C8E70093070003A30FF9FE53
S315200050301309F9FF330626412328C40013870400E9
S3152000504093860A001306C1019305040013050A007E
S31520005050EFF0DFC69309F0FF631A35131305F0FF4F
S315200050608320C103032481038324410303290103ED
S315200050708329C102032A8102832A410213010104E2
S31520005080678000008327040093E707022320F400AB
S3152000509093078007971600009386C66DA302F40433
S315200050A0832504000325070013F805088327050038
S315200050B013054500631A080013F805046306080063
S315200050C09397070193D707012320A70013F715000D
S315200050D06306070093E505022320B40063860700D4
S315200050E0130700016FF09FED032704001377F7FDE8
S315200050F02320E4006FF0DFFE9716000093864666B5
S315200051001307A0006FF09FEB832604008327070078
S315200051108325440113F8060813854700630A08000F
S315200051202320A70083A7070023A0B7006F008001D4
S315200051302320A70093F6060483A70700E38606FE2E
S315200051402390B70023280400130906006FF01FEFF1
S315200051508327070003264400930500009386470013
S315200051602320D70003A9070013050900EF00D07AF2
S3152000517063060500330525412322A4008327440026
S315200051802328F400A30104046FF05FEB83260401B7
S315200051901306090093850A0013050A00E780040018
S315200051A0E30E35EB8327040093F727006396070465
S315200051B08327C1010325C400E354F5EA13850700BC
S315200051C06FF01FEA9306100093850A0013050A0064
S315200051D02326C100E7800400E30235E90326C10047
S315200051E0130919008327C4000327C101B387E740A9
S315200051F0E34AF9FC6FF0DFFB130900001306940164
S315200052006FF05FFE8397C500130101FE232C8100FA
S31520005210232A9100232E11002328210113F787002A
S3152000522093040500138405006312071203A74500A3
S315200052306346E00003A705046356E0100327C40273
S315200052406302071003A904009396370123A00400E4
S3152000525063DC060A032644058357C40093F74700F8
S31520005260638E0700832744003306F64083274403D2
S3152000527063860700832704043306F6408327C40287
S31520005280832504029306000013850400E7800700A7
S315200052901307F0FF8317C4006312E50283A60400F8
S315200052A01307D001636CD70E37074020130717006A
S315200052B03357D700137717006302070E032704011D
S315200052C0232204002320E40013973701635C0700A0
S315200052D09307F0FF6316F50083A704006394070085
S315200052E0232AA4048325440323A02401638C0504D4
S315200052F0930744046386F50013850400EFF0CF9BE3
S31520005300232A04026F0000048325040213060000EA
S315200053109306100013850400E70007009307F0FFAB
S3152000532013060500E31AF5F283A70400E38607F2C5
S31520005330138737FE630607009387A7FE639E07043D
S3152000534023A02401130500006F00000603A6050113
S31520005350E30A06FE83A6050093F7370023A0C500BF
S315200053603389C640130700006394070003A745014D
S315200053702324E400E35820FD8327840283250402A6
S3152000538093060900138504002326C100E780070041
S315200053900326C1006346A0028357C40093E707048F
S315200053A02316F4001305F0FF8320C1010324810195
S315200053B083244101032901011301010267800000B2
S315200053C03306A6003309A9406FF0DFFA83A705014B
S315200053D0638E0704130101FE232C8100232E110066
S315200053E013040500630C0500832705026398070054
S315200053F02326B100EF00C02F8325C1008397C50067
S31520005400638C070013050400032481018320C10156
S31520005410130101026FF01FDF8320C10103248101E4
S315200054201305000013010102678000001305000028
S31520005430678000009305050063100502171600001B
S315200054401306864297050000938585F817150000F8
S315200054501305C53C6F00C07517150000032585414F
S315200054606FF0DFF61305000067800000130101FFCF
S315200054702324810023261100130405002316B500DA
S315200054802317C50023200500232205002324050019
S315200054902322050623280500232A0500232C0500A0
S315200054A013068000930500001305C505EF10C005FF
S315200054B097170000938707902322F402971700007E
S315200054C09387C7942324F402971700009387479C59
S315200054D02326F40297170000938707A18320C10093
S315200054E0232084022328F4020324810013010101CE
S315200054F06780000017160000130606379705000080
